{
  "_format": "hh-sol-artifact-1",
  "contractName": "LeagueX3",
  "sourceName": "contracts/LeagueX3.sol",
  "abi": [
    {
      "inputs": [
        {
          "internalType": "string",
          "name": "matchCid",
          "type": "string"
        },
        {
          "internalType": "string",
          "name": "leagueIpfsLink",
          "type": "string"
        },
        {
          "internalType": "uint16",
          "name": "sLimit",
          "type": "uint16"
        }
      ],
      "name": "CreateUpdateLeague",
      "outputs": [
        {
          "internalType": "string",
          "name": "",
          "type": "string"
        },
        {
          "internalType": "uint16",
          "name": "",
          "type": "uint16"
        }
      ],
      "stateMutability": "nonpayable",
      "type": "function"
    },
    {
      "inputs": [
        {
          "internalType": "string",
          "name": "matchCid",
          "type": "string"
        }
      ],
      "name": "GetLeagues",
      "outputs": [
        {
          "components": [
            {
              "internalType": "string",
              "name": "ipfsLink",
              "type": "string"
            },
            {
              "internalType": "uint16",
              "name": "squadLimit",
              "type": "uint16"
            }
          ],
          "internalType": "struct LeagueX3.leagueData[]",
          "name": "",
          "type": "tuple[]"
        }
      ],
      "stateMutability": "view",
      "type": "function"
    },
    {
      "inputs": [
        {
          "internalType": "address",
          "name": "user_addr",
          "type": "address"
        }
      ],
      "name": "get_all_user_participation",
      "outputs": [
        {
          "internalType": "address",
          "name": "",
          "type": "address"
        },
        {
          "components": [
            {
              "internalType": "string",
              "name": "leagueDataLink",
              "type": "string"
            },
            {
              "internalType": "string",
              "name": "squads",
              "type": "string"
            }
          ],
          "internalType": "struct LeagueX3.userLeagueData[]",
          "name": "",
          "type": "tuple[]"
        }
      ],
      "stateMutability": "view",
      "type": "function"
    },
    {
      "inputs": [
        {
          "internalType": "address",
          "name": "user_addr",
          "type": "address"
        },
        {
          "internalType": "string",
          "name": "leagueLink",
          "type": "string"
        }
      ],
      "name": "get_user_league_participation",
      "outputs": [
        {
          "internalType": "address",
          "name": "u_addr",
          "type": "address"
        },
        {
          "components": [
            {
              "internalType": "string",
              "name": "leagueDataLink",
              "type": "string"
            },
            {
              "internalType": "string",
              "name": "squads",
              "type": "string"
            }
          ],
          "internalType": "struct LeagueX3.userLeagueData",
          "name": "u_league",
          "type": "tuple"
        }
      ],
      "stateMutability": "view",
      "type": "function"
    },
    {
      "inputs": [
        {
          "internalType": "address",
          "name": "user_addr",
          "type": "address"
        },
        {
          "internalType": "string",
          "name": "leagueLink",
          "type": "string"
        },
        {
          "internalType": "string",
          "name": "squadLink",
          "type": "string"
        }
      ],
      "name": "user_participate",
      "outputs": [
        {
          "internalType": "address",
          "name": "",
          "type": "address"
        },
        {
          "components": [
            {
              "internalType": "string",
              "name": "leagueDataLink",
              "type": "string"
            },
            {
              "internalType": "string",
              "name": "squads",
              "type": "string"
            }
          ],
          "internalType": "struct LeagueX3.userLeagueData",
          "name": "",
          "type": "tuple"
        }
      ],
      "stateMutability": "nonpayable",
      "type": "function"
    }
  ],
  "bytecode": "0x608060405234801561001057600080fd5b50611c60806100206000396000f3fe608060405234801561001057600080fd5b50600436106100575760003560e01c806366a0f6521461005c5780639f60dccc1461008d578063b55954fe146100be578063c4a2aef1146100ef578063ef1999881461011f575b600080fd5b61007660048036038101906100719190610fea565b610150565b604051610084929190611103565b60405180910390f35b6100a760048036038101906100a29190611191565b61031e565b6040516100b59291906112b9565b60405180910390f35b6100d860048036038101906100d391906112e9565b610735565b6040516100e69291906112b9565b60405180910390f35b61010960048036038101906101049190611345565b610953565b604051610116919061149c565b60405180910390f35b610139600480360381019061013491906114be565b610a82565b6040516101479291906115f1565b60405180910390f35b6060600080600086604051610165919061165d565b9081526020016040518091039020905060005b818054905081101561025b57858051906020012082828154811061019f5761019e611674565b5b90600052602060002090600202016000016040516101bd91906117a6565b60405180910390200361024857858282815481106101de576101dd611674565b5b906000526020600020906002020160000190816101fb9190611973565b50848282815481106102105761020f611674565b5b906000526020600020906002020160010160006101000a81548161ffff021916908361ffff1602179055508585935093505050610316565b808061025390611a74565b915050610178565b50600060405180604001604052808781526020018661ffff1681525090508181908060018154018082558091505060019003906000526020600020906002020160009091909190915060008201518160000190816102b99190611973565b5060208201518160010160006101000a81548161ffff021916908361ffff1602179055505050816000886040516102f0919061165d565b908152602001604051809103902090805461030c929190610c4c565b5085859350935050505b935093915050565b6000610328610cea565b6000600160008773ffffffffffffffffffffffffffffffffffffffff1673ffffffffffffffffffffffffffffffffffffffff168152602001908152602001600020905060005b818054905081101561066257858051906020012082828154811061039557610394611674565b5b90600052602060002090600202016000016040516103b391906117a6565b60405180910390200361064f5760008282815481106103d5576103d4611674565b5b906000526020600020906002020160010180546103f1906116d2565b80601f016020809104026020016040519081016040528092919081815260200182805461041d906116d2565b801561046a5780601f1061043f5761010080835404028352916020019161046a565b820191906000526020600020905b81548152906001019060200180831161044d57829003601f168201915b505050505090506000816040516020016104849190611ae2565b6040516020818303038152906040529050600081886040516020016104aa929190611b08565b6040516020818303038152906040529050808585815481106104cf576104ce611674565b5b906000526020600020906002020160010190816104ec9190611973565b508985858154811061050157610500611674565b5b90600052602060002090600202018060405180604001604052908160008201805461052b906116d2565b80601f0160208091040260200160405190810160405280929190818152602001828054610557906116d2565b80156105a45780601f10610579576101008083540402835291602001916105a4565b820191906000526020600020905b81548152906001019060200180831161058757829003601f168201915b505050505081526020016001820180546105bd906116d2565b80601f01602080910402602001604051908101604052809291908181526020018280546105e9906116d2565b80156106365780601f1061060b57610100808354040283529160200191610636565b820191906000526020600020905b81548152906001019060200180831161061957829003601f168201915b505050505081525050905096509650505050505061072d565b808061065a90611a74565b91505061036e565b50600060405180604001604052808781526020018681525090508181908060018154018082558091505060019003906000526020600020906002020160009091909190915060008201518160000190816106bc9190611973565b5060208201518160010190816106d29190611973565b50505081600160008973ffffffffffffffffffffffffffffffffffffffff1673ffffffffffffffffffffffffffffffffffffffff168152602001908152602001600020908054610723929190610d04565b5086819350935050505b935093915050565b600061073f610cea565b6000600160008673ffffffffffffffffffffffffffffffffffffffff1673ffffffffffffffffffffffffffffffffffffffff168152602001908152602001600020905060005b81805490508110156109495784805190602001208282815481106107ac576107ab611674565b5b90600052602060002090600202016000016040516107ca91906117a6565b60405180910390200361093657858282815481106107eb576107ea611674565b5b906000526020600020906002020180604051806040016040529081600082018054610815906116d2565b80601f0160208091040260200160405190810160405280929190818152602001828054610841906116d2565b801561088e5780601f106108635761010080835404028352916020019161088e565b820191906000526020600020905b81548152906001019060200180831161087157829003601f168201915b505050505081526020016001820180546108a7906116d2565b80601f01602080910402602001604051908101604052809291908181526020018280546108d3906116d2565b80156109205780601f106108f557610100808354040283529160200191610920565b820191906000526020600020905b81548152906001019060200180831161090357829003601f168201915b505050505081525050905093509350505061094c565b808061094190611a74565b915050610785565b50505b9250929050565b6060600082604051610965919061165d565b9081526020016040518091039020805480602002602001604051908101604052809291908181526020016000905b82821015610a7757838290600052602060002090600202016040518060400160405290816000820180546109c6906116d2565b80601f01602080910402602001604051908101604052809291908181526020018280546109f2906116d2565b8015610a3f5780601f10610a1457610100808354040283529160200191610a3f565b820191906000526020600020905b815481529060010190602001808311610a2257829003601f168201915b505050505081526020016001820160009054906101000a900461ffff1661ffff1661ffff168152505081526020019060010190610993565b505050509050919050565b6000606082600160008573ffffffffffffffffffffffffffffffffffffffff1673ffffffffffffffffffffffffffffffffffffffff16815260200190815260200160002080805480602002602001604051908101604052809291908181526020016000905b82821015610c3d5783829060005260206000209060020201604051806040016040529081600082018054610b1a906116d2565b80601f0160208091040260200160405190810160405280929190818152602001828054610b46906116d2565b8015610b935780601f10610b6857610100808354040283529160200191610b93565b820191906000526020600020905b815481529060010190602001808311610b7657829003601f168201915b50505050508152602001600182018054610bac906116d2565b80601f0160208091040260200160405190810160405280929190818152602001828054610bd8906116d2565b8015610c255780601f10610bfa57610100808354040283529160200191610c25565b820191906000526020600020905b815481529060010190602001808311610c0857829003601f168201915b50505050508152505081526020019060010190610ae7565b50505050905091509150915091565b828054828255906000526020600020906002028101928215610cd95760005260206000209160020282015b82811115610cd857828260008201816000019081610c959190611b42565b506001820160009054906101000a900461ffff168160010160006101000a81548161ffff021916908361ffff160217905550505091600201919060020190610c77565b5b509050610ce69190610d86565b5090565b604051806040016040528060608152602001606081525090565b828054828255906000526020600020906002028101928215610d755760005260206000209160020282015b82811115610d7457828260008201816000019081610d4d9190611b42565b5060018201816001019081610d629190611b42565b50505091600201919060020190610d2f565b5b509050610d829190610dc2565b5090565b5b80821115610dbe5760008082016000610da09190610df9565b6001820160006101000a81549061ffff021916905550600201610d87565b5090565b5b80821115610df55760008082016000610ddc9190610df9565b600182016000610dec9190610df9565b50600201610dc3565b5090565b508054610e05906116d2565b6000825580601f10610e175750610e36565b601f016020900490600052602060002090810190610e359190610e39565b5b50565b5b80821115610e52576000816000905550600101610e3a565b5090565b6000604051905090565b600080fd5b600080fd5b600080fd5b600080fd5b6000601f19601f8301169050919050565b7f4e487b7100000000000000000000000000000000000000000000000000000000600052604160045260246000fd5b610ebd82610e74565b810181811067ffffffffffffffff82111715610edc57610edb610e85565b5b80604052505050565b6000610eef610e56565b9050610efb8282610eb4565b919050565b600067ffffffffffffffff821115610f1b57610f1a610e85565b5b610f2482610e74565b9050602081019050919050565b82818337600083830152505050565b6000610f53610f4e84610f00565b610ee5565b905082815260208101848484011115610f6f57610f6e610e6f565b5b610f7a848285610f31565b509392505050565b600082601f830112610f9757610f96610e6a565b5b8135610fa7848260208601610f40565b91505092915050565b600061ffff82169050919050565b610fc781610fb0565b8114610fd257600080fd5b50565b600081359050610fe481610fbe565b92915050565b60008060006060848603121561100357611002610e60565b5b600084013567ffffffffffffffff81111561102157611020610e65565b5b61102d86828701610f82565b935050602084013567ffffffffffffffff81111561104e5761104d610e65565b5b61105a86828701610f82565b925050604061106b86828701610fd5565b9150509250925092565b600081519050919050565b600082825260208201905092915050565b60005b838110156110af578082015181840152602081019050611094565b60008484015250505050565b60006110c682611075565b6110d08185611080565b93506110e0818560208601611091565b6110e981610e74565b840191505092915050565b6110fd81610fb0565b82525050565b6000604082019050818103600083015261111d81856110bb565b905061112c60208301846110f4565b9392505050565b600073ffffffffffffffffffffffffffffffffffffffff82169050919050565b600061115e82611133565b9050919050565b61116e81611153565b811461117957600080fd5b50565b60008135905061118b81611165565b92915050565b6000806000606084860312156111aa576111a9610e60565b5b60006111b88682870161117c565b935050602084013567ffffffffffffffff8111156111d9576111d8610e65565b5b6111e586828701610f82565b925050604084013567ffffffffffffffff81111561120657611205610e65565b5b61121286828701610f82565b9150509250925092565b61122581611153565b82525050565b600082825260208201905092915050565b600061124782611075565b611251818561122b565b9350611261818560208601611091565b61126a81610e74565b840191505092915050565b60006040830160008301518482036000860152611292828261123c565b915050602083015184820360208601526112ac828261123c565b9150508091505092915050565b60006040820190506112ce600083018561121c565b81810360208301526112e08184611275565b90509392505050565b60008060408385031215611300576112ff610e60565b5b600061130e8582860161117c565b925050602083013567ffffffffffffffff81111561132f5761132e610e65565b5b61133b85828601610f82565b9150509250929050565b60006020828403121561135b5761135a610e60565b5b600082013567ffffffffffffffff81111561137957611378610e65565b5b61138584828501610f82565b91505092915050565b600081519050919050565b600082825260208201905092915050565b6000819050602082019050919050565b6113c381610fb0565b82525050565b600060408301600083015184820360008601526113e6828261123c565b91505060208301516113fb60208601826113ba565b508091505092915050565b600061141283836113c9565b905092915050565b6000602082019050919050565b60006114328261138e565b61143c8185611399565b93508360208202850161144e856113aa565b8060005b8581101561148a578484038952815161146b8582611406565b94506114768361141a565b925060208a01995050600181019050611452565b50829750879550505050505092915050565b600060208201905081810360008301526114b68184611427565b905092915050565b6000602082840312156114d4576114d3610e60565b5b60006114e28482850161117c565b91505092915050565b600081519050919050565b600082825260208201905092915050565b6000819050602082019050919050565b60006040830160008301518482036000860152611534828261123c565b9150506020830151848203602086015261154e828261123c565b9150508091505092915050565b60006115678383611517565b905092915050565b6000602082019050919050565b6000611587826114eb565b61159181856114f6565b9350836020820285016115a385611507565b8060005b858110156115df57848403895281516115c0858261155b565b94506115cb8361156f565b925060208a019950506001810190506115a7565b50829750879550505050505092915050565b6000604082019050611606600083018561121c565b8181036020830152611618818461157c565b90509392505050565b600081905092915050565b600061163782611075565b6116418185611621565b9350611651818560208601611091565b80840191505092915050565b6000611669828461162c565b915081905092915050565b7f4e487b7100000000000000000000000000000000000000000000000000000000600052603260045260246000fd5b7f4e487b7100000000000000000000000000000000000000000000000000000000600052602260045260246000fd5b600060028204905060018216806116ea57607f821691505b6020821081036116fd576116fc6116a3565b5b50919050565b600081905092915050565b60008190508160005260206000209050919050565b60008154611730816116d2565b61173a8186611703565b94506001821660008114611755576001811461176a5761179d565b60ff198316865281151582028601935061179d565b6117738561170e565b60005b8381101561179557815481890152600182019150602081019050611776565b838801955050505b50505092915050565b60006117b28284611723565b915081905092915050565b60008190508160005260206000209050919050565b60006020601f8301049050919050565b600082821b905092915050565b60006008830261181f7fffffffffffffffffffffffffffffffffffffffffffffffffffffffffffffffff826117e2565b61182986836117e2565b95508019841693508086168417925050509392505050565b6000819050919050565b6000819050919050565b600061187061186b61186684611841565b61184b565b611841565b9050919050565b6000819050919050565b61188a83611855565b61189e61189682611877565b8484546117ef565b825550505050565b600090565b6118b36118a6565b6118be818484611881565b505050565b5b818110156118e2576118d76000826118ab565b6001810190506118c4565b5050565b601f821115611927576118f8816117bd565b611901846117d2565b81016020851015611910578190505b61192461191c856117d2565b8301826118c3565b50505b505050565b600082821c905092915050565b600061194a6000198460080261192c565b1980831691505092915050565b60006119638383611939565b9150826002028217905092915050565b61197c82611075565b67ffffffffffffffff81111561199557611994610e85565b5b61199f82546116d2565b6119aa8282856118e6565b600060209050601f8311600181146119dd57600084156119cb578287015190505b6119d58582611957565b865550611a3d565b601f1984166119eb866117bd565b60005b82811015611a13578489015182556001820191506020850194506020810190506119ee565b86831015611a305784890151611a2c601f891682611939565b8355505b6001600288020188555050505b505050505050565b7f4e487b7100000000000000000000000000000000000000000000000000000000600052601160045260246000fd5b6000611a7f82611841565b91507fffffffffffffffffffffffffffffffffffffffffffffffffffffffffffffffff8203611ab157611ab0611a45565b5b600182019050919050565b7f3b3b3b0000000000000000000000000000000000000000000000000000000000815250565b6000611aee828461162c565b9150611af982611abc565b60038201915081905092915050565b6000611b14828561162c565b9150611b20828461162c565b91508190509392505050565b600081549050611b3b816116d2565b9050919050565b818103611b50575050611c28565b611b5982611b2c565b67ffffffffffffffff811115611b7257611b71610e85565b5b611b7c82546116d2565b611b878282856118e6565b6000601f831160018114611bb65760008415611ba4578287015490505b611bae8582611957565b865550611c21565b601f198416611bc4876117bd565b9650611bcf866117bd565b60005b82811015611bf757848901548255600182019150600185019450602081019050611bd2565b86831015611c145784890154611c10601f891682611939565b8355505b6001600288020188555050505b5050505050505b56fea26469706673582212209189ed58c4d0fcc0f7376bd457164ec9d986799d1d4b7fa3073ca55ae31716a264736f6c63430008110033",
  "linkReferences": {},
  "deployedLinkReferences": {}
}