{
  "_format": "hh-sol-artifact-1",
  "contractName": "LeagueRewards",
  "sourceName": "contracts/LeagueRewards.sol",
  "abi": [
    {
      "inputs": [
        {
          "internalType": "address",
          "name": "_orgOwner",
          "type": "address"
        }
      ],
      "stateMutability": "nonpayable",
      "type": "constructor"
    },
    {
      "anonymous": false,
      "inputs": [
        {
          "indexed": true,
          "internalType": "address",
          "name": "owner",
          "type": "address"
        },
        {
          "indexed": true,
          "internalType": "address",
          "name": "approved",
          "type": "address"
        },
        {
          "indexed": true,
          "internalType": "uint256",
          "name": "tokenId",
          "type": "uint256"
        }
      ],
      "name": "Approval",
      "type": "event"
    },
    {
      "anonymous": false,
      "inputs": [
        {
          "indexed": true,
          "internalType": "address",
          "name": "owner",
          "type": "address"
        },
        {
          "indexed": true,
          "internalType": "address",
          "name": "operator",
          "type": "address"
        },
        {
          "indexed": false,
          "internalType": "bool",
          "name": "approved",
          "type": "bool"
        }
      ],
      "name": "ApprovalForAll",
      "type": "event"
    },
    {
      "anonymous": false,
      "inputs": [
        {
          "indexed": true,
          "internalType": "address",
          "name": "from",
          "type": "address"
        },
        {
          "indexed": true,
          "internalType": "address",
          "name": "to",
          "type": "address"
        },
        {
          "indexed": true,
          "internalType": "uint256",
          "name": "tokenId",
          "type": "uint256"
        }
      ],
      "name": "Transfer",
      "type": "event"
    },
    {
      "inputs": [
        {
          "internalType": "string",
          "name": "leagueName",
          "type": "string"
        },
        {
          "internalType": "string",
          "name": "matchName",
          "type": "string"
        },
        {
          "internalType": "string",
          "name": "title",
          "type": "string"
        },
        {
          "internalType": "string",
          "name": "ipfsHash",
          "type": "string"
        },
        {
          "internalType": "string",
          "name": "image",
          "type": "string"
        },
        {
          "internalType": "address",
          "name": "ownerAddress",
          "type": "address"
        }
      ],
      "name": "CreateNft",
      "outputs": [],
      "stateMutability": "nonpayable",
      "type": "function"
    },
    {
      "inputs": [
        {
          "internalType": "address",
          "name": "user_address",
          "type": "address"
        }
      ],
      "name": "GetUserRewards",
      "outputs": [
        {
          "components": [
            {
              "internalType": "uint256",
              "name": "tokenId",
              "type": "uint256"
            },
            {
              "internalType": "string",
              "name": "ipfsHash",
              "type": "string"
            },
            {
              "internalType": "string",
              "name": "image",
              "type": "string"
            },
            {
              "internalType": "address",
              "name": "owner",
              "type": "address"
            },
            {
              "internalType": "uint256",
              "name": "createdAt",
              "type": "uint256"
            },
            {
              "internalType": "string",
              "name": "leagueName",
              "type": "string"
            },
            {
              "internalType": "string",
              "name": "matchName",
              "type": "string"
            },
            {
              "internalType": "string",
              "name": "title",
              "type": "string"
            }
          ],
          "internalType": "struct LeagueRewards.LeagueRewardData[]",
          "name": "",
          "type": "tuple[]"
        }
      ],
      "stateMutability": "view",
      "type": "function"
    },
    {
      "inputs": [
        {
          "internalType": "address",
          "name": "to",
          "type": "address"
        },
        {
          "internalType": "uint256",
          "name": "tokenId",
          "type": "uint256"
        }
      ],
      "name": "approve",
      "outputs": [],
      "stateMutability": "nonpayable",
      "type": "function"
    },
    {
      "inputs": [
        {
          "internalType": "address",
          "name": "owner",
          "type": "address"
        }
      ],
      "name": "balanceOf",
      "outputs": [
        {
          "internalType": "uint256",
          "name": "",
          "type": "uint256"
        }
      ],
      "stateMutability": "view",
      "type": "function"
    },
    {
      "inputs": [
        {
          "internalType": "uint256",
          "name": "tokenId",
          "type": "uint256"
        }
      ],
      "name": "getApproved",
      "outputs": [
        {
          "internalType": "address",
          "name": "",
          "type": "address"
        }
      ],
      "stateMutability": "view",
      "type": "function"
    },
    {
      "inputs": [
        {
          "internalType": "address",
          "name": "owner",
          "type": "address"
        },
        {
          "internalType": "address",
          "name": "operator",
          "type": "address"
        }
      ],
      "name": "isApprovedForAll",
      "outputs": [
        {
          "internalType": "bool",
          "name": "",
          "type": "bool"
        }
      ],
      "stateMutability": "view",
      "type": "function"
    },
    {
      "inputs": [],
      "name": "name",
      "outputs": [
        {
          "internalType": "string",
          "name": "",
          "type": "string"
        }
      ],
      "stateMutability": "view",
      "type": "function"
    },
    {
      "inputs": [
        {
          "internalType": "uint256",
          "name": "tokenId",
          "type": "uint256"
        }
      ],
      "name": "ownerOf",
      "outputs": [
        {
          "internalType": "address",
          "name": "",
          "type": "address"
        }
      ],
      "stateMutability": "view",
      "type": "function"
    },
    {
      "inputs": [
        {
          "internalType": "address",
          "name": "from",
          "type": "address"
        },
        {
          "internalType": "address",
          "name": "to",
          "type": "address"
        },
        {
          "internalType": "uint256",
          "name": "tokenId",
          "type": "uint256"
        }
      ],
      "name": "safeTransferFrom",
      "outputs": [],
      "stateMutability": "nonpayable",
      "type": "function"
    },
    {
      "inputs": [
        {
          "internalType": "address",
          "name": "from",
          "type": "address"
        },
        {
          "internalType": "address",
          "name": "to",
          "type": "address"
        },
        {
          "internalType": "uint256",
          "name": "tokenId",
          "type": "uint256"
        },
        {
          "internalType": "bytes",
          "name": "data",
          "type": "bytes"
        }
      ],
      "name": "safeTransferFrom",
      "outputs": [],
      "stateMutability": "nonpayable",
      "type": "function"
    },
    {
      "inputs": [
        {
          "internalType": "address",
          "name": "operator",
          "type": "address"
        },
        {
          "internalType": "bool",
          "name": "approved",
          "type": "bool"
        }
      ],
      "name": "setApprovalForAll",
      "outputs": [],
      "stateMutability": "nonpayable",
      "type": "function"
    },
    {
      "inputs": [
        {
          "internalType": "bytes4",
          "name": "interfaceId",
          "type": "bytes4"
        }
      ],
      "name": "supportsInterface",
      "outputs": [
        {
          "internalType": "bool",
          "name": "",
          "type": "bool"
        }
      ],
      "stateMutability": "view",
      "type": "function"
    },
    {
      "inputs": [],
      "name": "symbol",
      "outputs": [
        {
          "internalType": "string",
          "name": "",
          "type": "string"
        }
      ],
      "stateMutability": "view",
      "type": "function"
    },
    {
      "inputs": [
        {
          "internalType": "uint256",
          "name": "tokenId",
          "type": "uint256"
        }
      ],
      "name": "tokenURI",
      "outputs": [
        {
          "internalType": "string",
          "name": "",
          "type": "string"
        }
      ],
      "stateMutability": "view",
      "type": "function"
    },
    {
      "inputs": [
        {
          "internalType": "address",
          "name": "from",
          "type": "address"
        },
        {
          "internalType": "address",
          "name": "to",
          "type": "address"
        },
        {
          "internalType": "uint256",
          "name": "tokenId",
          "type": "uint256"
        }
      ],
      "name": "transferFrom",
      "outputs": [],
      "stateMutability": "nonpayable",
      "type": "function"
    }
  ],
  "bytecode": "0x608060405260016007553480156200001657600080fd5b5060405162003aee38038062003aee83398181016040528101906200003c919062000180565b6040518060400160405280600f81526020017f4c65616775655265776172644e465400000000000000000000000000000000008152506040518060400160405280600581526020017f4c524e46540000000000000000000000000000000000000000000000000000008152508160009081620000b991906200042c565b508060019081620000cb91906200042c565b50505080600860006101000a81548173ffffffffffffffffffffffffffffffffffffffff021916908373ffffffffffffffffffffffffffffffffffffffff1602179055505062000513565b600080fd5b600073ffffffffffffffffffffffffffffffffffffffff82169050919050565b600062000148826200011b565b9050919050565b6200015a816200013b565b81146200016657600080fd5b50565b6000815190506200017a816200014f565b92915050565b60006020828403121562000199576200019862000116565b5b6000620001a98482850162000169565b91505092915050565b600081519050919050565b7f4e487b7100000000000000000000000000000000000000000000000000000000600052604160045260246000fd5b7f4e487b7100000000000000000000000000000000000000000000000000000000600052602260045260246000fd5b600060028204905060018216806200023457607f821691505b6020821081036200024a5762000249620001ec565b5b50919050565b60008190508160005260206000209050919050565b60006020601f8301049050919050565b600082821b905092915050565b600060088302620002b47fffffffffffffffffffffffffffffffffffffffffffffffffffffffffffffffff8262000275565b620002c0868362000275565b95508019841693508086168417925050509392505050565b6000819050919050565b6000819050919050565b60006200030d620003076200030184620002d8565b620002e2565b620002d8565b9050919050565b6000819050919050565b6200032983620002ec565b62000341620003388262000314565b84845462000282565b825550505050565b600090565b6200035862000349565b620003658184846200031e565b505050565b5b818110156200038d57620003816000826200034e565b6001810190506200036b565b5050565b601f821115620003dc57620003a68162000250565b620003b18462000265565b81016020851015620003c1578190505b620003d9620003d08562000265565b8301826200036a565b50505b505050565b600082821c905092915050565b60006200040160001984600802620003e1565b1980831691505092915050565b60006200041c8383620003ee565b9150826002028217905092915050565b6200043782620001b2565b67ffffffffffffffff811115620004535762000452620001bd565b5b6200045f82546200021b565b6200046c82828562000391565b600060209050601f831160018114620004a457600084156200048f578287015190505b6200049b85826200040e565b8655506200050b565b601f198416620004b48662000250565b60005b82811015620004de57848901518255600182019150602085019450602081019050620004b7565b86831015620004fe5784890151620004fa601f891682620003ee565b8355505b6001600288020188555050505b505050505050565b6135cb80620005236000396000f3fe608060405234801561001057600080fd5b50600436106100f55760003560e01c80636352211e11610097578063b88d4fde11610066578063b88d4fde14610282578063b9c6904f1461029e578063c87b56dd146102ce578063e985e9c5146102fe576100f5565b80636352211e146101e857806370a082311461021857806395d89b4114610248578063a22cb46514610266576100f5565b8063095ea7b3116100d3578063095ea7b3146101785780630ee3bd7e1461019457806323b872dd146101b057806342842e0e146101cc576100f5565b806301ffc9a7146100fa57806306fdde031461012a578063081812fc14610148575b600080fd5b610114600480360381019061010f9190612106565b61032e565b604051610121919061214e565b60405180910390f35b610132610410565b60405161013f91906121f9565b60405180910390f35b610162600480360381019061015d9190612251565b6104a2565b60405161016f91906122bf565b60405180910390f35b610192600480360381019061018d9190612306565b6104e8565b005b6101ae60048036038101906101a9919061247b565b6105ff565b005b6101ca60048036038101906101c59190612594565b610900565b005b6101e660048036038101906101e19190612594565b610960565b005b61020260048036038101906101fd9190612251565b610980565b60405161020f91906122bf565b60405180910390f35b610232600480360381019061022d91906125e7565b610a06565b60405161023f9190612623565b60405180910390f35b610250610abd565b60405161025d91906121f9565b60405180910390f35b610280600480360381019061027b919061266a565b610b4f565b005b61029c6004803603810190610297919061274b565b610b65565b005b6102b860048036038101906102b391906125e7565b610bc7565b6040516102c591906129c4565b60405180910390f35b6102e860048036038101906102e39190612251565b610faa565b6040516102f591906121f9565b60405180910390f35b610318600480360381019061031391906129e6565b6110bc565b604051610325919061214e565b60405180910390f35b60007f80ac58cd000000000000000000000000000000000000000000000000000000007bffffffffffffffffffffffffffffffffffffffffffffffffffffffff1916827bffffffffffffffffffffffffffffffffffffffffffffffffffffffff191614806103f957507f5b5e139f000000000000000000000000000000000000000000000000000000007bffffffffffffffffffffffffffffffffffffffffffffffffffffffff1916827bffffffffffffffffffffffffffffffffffffffffffffffffffffffff1916145b80610409575061040882611150565b5b9050919050565b60606000805461041f90612a55565b80601f016020809104026020016040519081016040528092919081815260200182805461044b90612a55565b80156104985780601f1061046d57610100808354040283529160200191610498565b820191906000526020600020905b81548152906001019060200180831161047b57829003601f168201915b5050505050905090565b60006104ad826111ba565b6004600083815260200190815260200160002060009054906101000a900473ffffffffffffffffffffffffffffffffffffffff169050919050565b60006104f382610980565b90508073ffffffffffffffffffffffffffffffffffffffff168373ffffffffffffffffffffffffffffffffffffffff1603610563576040517f08c379a000000000000000000000000000000000000000000000000000000000815260040161055a90612af8565b60405180910390fd5b8073ffffffffffffffffffffffffffffffffffffffff16610582611205565b73ffffffffffffffffffffffffffffffffffffffff1614806105b157506105b0816105ab611205565b6110bc565b5b6105f0576040517f08c379a00000000000000000000000000000000000000000000000000000000081526004016105e790612b8a565b60405180910390fd5b6105fa838361120d565b505050565b600073ffffffffffffffffffffffffffffffffffffffff168173ffffffffffffffffffffffffffffffffffffffff1603610637573390505b6000600980549050905060006040518061010001604052808381526020018681526020018581526020018473ffffffffffffffffffffffffffffffffffffffff16815260200142815260200189815260200188815260200187815250905060098190806001815401808255809150506001900390600052602060002090600802016000909190919091506000820151816000015560208201518160010190816106e09190612d56565b5060408201518160020190816106f69190612d56565b5060608201518160030160006101000a81548173ffffffffffffffffffffffffffffffffffffffff021916908373ffffffffffffffffffffffffffffffffffffffff1602179055506080820151816004015560a082015181600501908161075d9190612d56565b5060c08201518160060190816107739190612d56565b5060e08201518160070190816107899190612d56565b5050506000600a60008573ffffffffffffffffffffffffffffffffffffffff1673ffffffffffffffffffffffffffffffffffffffff1681526020019081526020016000209050808290806001815401808255809150506001900390600052602060002090600802016000909190919091506000820151816000015560208201518160010190816108199190612d56565b50604082015181600201908161082f9190612d56565b5060608201518160030160006101000a81548173ffffffffffffffffffffffffffffffffffffffff021916908373ffffffffffffffffffffffffffffffffffffffff1602179055506080820151816004015560a08201518160050190816108969190612d56565b5060c08201518160060190816108ac9190612d56565b5060e08201518160070190816108c29190612d56565b5050506108d1336007546112c6565b6108dd600754876114e3565b600760008154809291906108f090612e57565b9190505550505050505050505050565b61091161090b611205565b82611550565b610950576040517f08c379a000000000000000000000000000000000000000000000000000000000815260040161094790612f11565b60405180910390fd5b61095b8383836115e5565b505050565b61097b83838360405180602001604052806000815250610b65565b505050565b60008061098c836118de565b9050600073ffffffffffffffffffffffffffffffffffffffff168173ffffffffffffffffffffffffffffffffffffffff16036109fd576040517f08c379a00000000000000000000000000000000000000000000000000000000081526004016109f490612f7d565b60405180910390fd5b80915050919050565b60008073ffffffffffffffffffffffffffffffffffffffff168273ffffffffffffffffffffffffffffffffffffffff1603610a76576040517f08c379a0000000000000000000000000000000000000000000000000000000008152600401610a6d9061300f565b60405180910390fd5b600360008373ffffffffffffffffffffffffffffffffffffffff1673ffffffffffffffffffffffffffffffffffffffff168152602001908152602001600020549050919050565b606060018054610acc90612a55565b80601f0160208091040260200160405190810160405280929190818152602001828054610af890612a55565b8015610b455780601f10610b1a57610100808354040283529160200191610b45565b820191906000526020600020905b815481529060010190602001808311610b2857829003601f168201915b5050505050905090565b610b61610b5a611205565b838361191b565b5050565b610b76610b70611205565b83611550565b610bb5576040517f08c379a0000000000000000000000000000000000000000000000000000000008152600401610bac90612f11565b60405180910390fd5b610bc184848484611a87565b50505050565b6060600a60008373ffffffffffffffffffffffffffffffffffffffff1673ffffffffffffffffffffffffffffffffffffffff168152602001908152602001600020805480602002602001604051908101604052809291908181526020016000905b82821015610f9f57838290600052602060002090600802016040518061010001604052908160008201548152602001600182018054610c6690612a55565b80601f0160208091040260200160405190810160405280929190818152602001828054610c9290612a55565b8015610cdf5780601f10610cb457610100808354040283529160200191610cdf565b820191906000526020600020905b815481529060010190602001808311610cc257829003601f168201915b50505050508152602001600282018054610cf890612a55565b80601f0160208091040260200160405190810160405280929190818152602001828054610d2490612a55565b8015610d715780601f10610d4657610100808354040283529160200191610d71565b820191906000526020600020905b815481529060010190602001808311610d5457829003601f168201915b505050505081526020016003820160009054906101000a900473ffffffffffffffffffffffffffffffffffffffff1673ffffffffffffffffffffffffffffffffffffffff1673ffffffffffffffffffffffffffffffffffffffff16815260200160048201548152602001600582018054610dea90612a55565b80601f0160208091040260200160405190810160405280929190818152602001828054610e1690612a55565b8015610e635780601f10610e3857610100808354040283529160200191610e63565b820191906000526020600020905b815481529060010190602001808311610e4657829003601f168201915b50505050508152602001600682018054610e7c90612a55565b80601f0160208091040260200160405190810160405280929190818152602001828054610ea890612a55565b8015610ef55780601f10610eca57610100808354040283529160200191610ef5565b820191906000526020600020905b815481529060010190602001808311610ed857829003601f168201915b50505050508152602001600782018054610f0e90612a55565b80601f0160208091040260200160405190810160405280929190818152602001828054610f3a90612a55565b8015610f875780601f10610f5c57610100808354040283529160200191610f87565b820191906000526020600020905b815481529060010190602001808311610f6a57829003601f168201915b50505050508152505081526020019060010190610c28565b505050509050919050565b6060610fb5826111ba565b6000600660008481526020019081526020016000208054610fd590612a55565b80601f016020809104026020016040519081016040528092919081815260200182805461100190612a55565b801561104e5780601f106110235761010080835404028352916020019161104e565b820191906000526020600020905b81548152906001019060200180831161103157829003601f168201915b50505050509050600061105f611ae3565b905060008151036110745781925050506110b7565b6000825111156110a957808260405160200161109192919061306b565b604051602081830303815290604052925050506110b7565b6110b284611afa565b925050505b919050565b6000600560008473ffffffffffffffffffffffffffffffffffffffff1673ffffffffffffffffffffffffffffffffffffffff16815260200190815260200160002060008373ffffffffffffffffffffffffffffffffffffffff1673ffffffffffffffffffffffffffffffffffffffff16815260200190815260200160002060009054906101000a900460ff16905092915050565b60007f01ffc9a7000000000000000000000000000000000000000000000000000000007bffffffffffffffffffffffffffffffffffffffffffffffffffffffff1916827bffffffffffffffffffffffffffffffffffffffffffffffffffffffff1916149050919050565b6111c381611b62565b611202576040517f08c379a00000000000000000000000000000000000000000000000000000000081526004016111f990612f7d565b60405180910390fd5b50565b600033905090565b816004600083815260200190815260200160002060006101000a81548173ffffffffffffffffffffffffffffffffffffffff021916908373ffffffffffffffffffffffffffffffffffffffff160217905550808273ffffffffffffffffffffffffffffffffffffffff1661128083610980565b73ffffffffffffffffffffffffffffffffffffffff167f8c5be1e5ebec7d5bd14f71427d1e84f3dd0314c0f7b2291e5b200ac8c7c3b92560405160405180910390a45050565b600073ffffffffffffffffffffffffffffffffffffffff168273ffffffffffffffffffffffffffffffffffffffff1603611335576040517f08c379a000000000000000000000000000000000000000000000000000000000815260040161132c906130db565b60405180910390fd5b61133e81611b62565b1561137e576040517f08c379a000000000000000000000000000000000000000000000000000000000815260040161137590613147565b60405180910390fd5b61138c600083836001611ba3565b61139581611b62565b156113d5576040517f08c379a00000000000000000000000000000000000000000000000000000000081526004016113cc90613147565b60405180910390fd5b6001600360008473ffffffffffffffffffffffffffffffffffffffff1673ffffffffffffffffffffffffffffffffffffffff16815260200190815260200160002060008282540192505081905550816002600083815260200190815260200160002060006101000a81548173ffffffffffffffffffffffffffffffffffffffff021916908373ffffffffffffffffffffffffffffffffffffffff160217905550808273ffffffffffffffffffffffffffffffffffffffff16600073ffffffffffffffffffffffffffffffffffffffff167fddf252ad1be2c89b69c2b068fc378daa952ba7f163c4a11628f55a4df523b3ef60405160405180910390a46114df600083836001611cc9565b5050565b6114ec82611b62565b61152b576040517f08c379a0000000000000000000000000000000000000000000000000000000008152600401611522906131d9565b60405180910390fd5b8060066000848152602001908152602001600020908161154b9190612d56565b505050565b60008061155c83610980565b90508073ffffffffffffffffffffffffffffffffffffffff168473ffffffffffffffffffffffffffffffffffffffff16148061159e575061159d81856110bc565b5b806115dc57508373ffffffffffffffffffffffffffffffffffffffff166115c4846104a2565b73ffffffffffffffffffffffffffffffffffffffff16145b91505092915050565b8273ffffffffffffffffffffffffffffffffffffffff1661160582610980565b73ffffffffffffffffffffffffffffffffffffffff161461165b576040517f08c379a00000000000000000000000000000000000000000000000000000000081526004016116529061326b565b60405180910390fd5b600073ffffffffffffffffffffffffffffffffffffffff168273ffffffffffffffffffffffffffffffffffffffff16036116ca576040517f08c379a00000000000000000000000000000000000000000000000000000000081526004016116c1906132fd565b60405180910390fd5b6116d78383836001611ba3565b8273ffffffffffffffffffffffffffffffffffffffff166116f782610980565b73ffffffffffffffffffffffffffffffffffffffff161461174d576040517f08c379a00000000000000000000000000000000000000000000000000000000081526004016117449061326b565b60405180910390fd5b6004600082815260200190815260200160002060006101000a81549073ffffffffffffffffffffffffffffffffffffffff02191690556001600360008573ffffffffffffffffffffffffffffffffffffffff1673ffffffffffffffffffffffffffffffffffffffff168152602001908152602001600020600082825403925050819055506001600360008473ffffffffffffffffffffffffffffffffffffffff1673ffffffffffffffffffffffffffffffffffffffff16815260200190815260200160002060008282540192505081905550816002600083815260200190815260200160002060006101000a81548173ffffffffffffffffffffffffffffffffffffffff021916908373ffffffffffffffffffffffffffffffffffffffff160217905550808273ffffffffffffffffffffffffffffffffffffffff168473ffffffffffffffffffffffffffffffffffffffff167fddf252ad1be2c89b69c2b068fc378daa952ba7f163c4a11628f55a4df523b3ef60405160405180910390a46118d98383836001611cc9565b505050565b60006002600083815260200190815260200160002060009054906101000a900473ffffffffffffffffffffffffffffffffffffffff169050919050565b8173ffffffffffffffffffffffffffffffffffffffff168373ffffffffffffffffffffffffffffffffffffffff1603611989576040517f08c379a000000000000000000000000000000000000000000000000000000000815260040161198090613369565b60405180910390fd5b80600560008573ffffffffffffffffffffffffffffffffffffffff1673ffffffffffffffffffffffffffffffffffffffff16815260200190815260200160002060008473ffffffffffffffffffffffffffffffffffffffff1673ffffffffffffffffffffffffffffffffffffffff16815260200190815260200160002060006101000a81548160ff0219169083151502179055508173ffffffffffffffffffffffffffffffffffffffff168373ffffffffffffffffffffffffffffffffffffffff167f17307eab39ab6107e8899845ad3d59bd9653f200f220920489ca2b5937696c3183604051611a7a919061214e565b60405180910390a3505050565b611a928484846115e5565b611a9e84848484611ccf565b611add576040517f08c379a0000000000000000000000000000000000000000000000000000000008152600401611ad4906133fb565b60405180910390fd5b50505050565b606060405180602001604052806000815250905090565b6060611b05826111ba565b6000611b0f611ae3565b90506000815111611b2f5760405180602001604052806000815250611b5a565b80611b3984611e56565b604051602001611b4a92919061306b565b6040516020818303038152906040525b915050919050565b60008073ffffffffffffffffffffffffffffffffffffffff16611b84836118de565b73ffffffffffffffffffffffffffffffffffffffff1614159050919050565b6001811115611cc357600073ffffffffffffffffffffffffffffffffffffffff168473ffffffffffffffffffffffffffffffffffffffff1614611c375780600360008673ffffffffffffffffffffffffffffffffffffffff1673ffffffffffffffffffffffffffffffffffffffff1681526020019081526020016000206000828254611c2f919061341b565b925050819055505b600073ffffffffffffffffffffffffffffffffffffffff168373ffffffffffffffffffffffffffffffffffffffff1614611cc25780600360008573ffffffffffffffffffffffffffffffffffffffff1673ffffffffffffffffffffffffffffffffffffffff1681526020019081526020016000206000828254611cba919061344f565b925050819055505b5b50505050565b50505050565b6000611cf08473ffffffffffffffffffffffffffffffffffffffff16611f24565b15611e49578373ffffffffffffffffffffffffffffffffffffffff1663150b7a02611d19611205565b8786866040518563ffffffff1660e01b8152600401611d3b94939291906134d8565b6020604051808303816000875af1925050508015611d7757506040513d601f19601f82011682018060405250810190611d749190613539565b60015b611df9573d8060008114611da7576040519150601f19603f3d011682016040523d82523d6000602084013e611dac565b606091505b506000815103611df1576040517f08c379a0000000000000000000000000000000000000000000000000000000008152600401611de8906133fb565b60405180910390fd5b805181602001fd5b63150b7a0260e01b7bffffffffffffffffffffffffffffffffffffffffffffffffffffffff1916817bffffffffffffffffffffffffffffffffffffffffffffffffffffffff191614915050611e4e565b600190505b949350505050565b606060006001611e6584611f47565b01905060008167ffffffffffffffff811115611e8457611e83612350565b5b6040519080825280601f01601f191660200182016040528015611eb65781602001600182028036833780820191505090505b509050600082602001820190505b600115611f19578080600190039150507f3031323334353637383961626364656600000000000000000000000000000000600a86061a8153600a8581611f0d57611f0c613566565b5b04945060008503611ec4575b819350505050919050565b6000808273ffffffffffffffffffffffffffffffffffffffff163b119050919050565b600080600090507a184f03e93ff9f4daa797ed6e38ed64bf6a1f0100000000000000008310611fa5577a184f03e93ff9f4daa797ed6e38ed64bf6a1f0100000000000000008381611f9b57611f9a613566565b5b0492506040810190505b6d04ee2d6d415b85acef81000000008310611fe2576d04ee2d6d415b85acef81000000008381611fd857611fd7613566565b5b0492506020810190505b662386f26fc10000831061201157662386f26fc10000838161200757612006613566565b5b0492506010810190505b6305f5e100831061203a576305f5e10083816120305761202f613566565b5b0492506008810190505b612710831061205f57612710838161205557612054613566565b5b0492506004810190505b60648310612082576064838161207857612077613566565b5b0492506002810190505b600a8310612091576001810190505b80915050919050565b6000604051905090565b600080fd5b600080fd5b60007fffffffff0000000000000000000000000000000000000000000000000000000082169050919050565b6120e3816120ae565b81146120ee57600080fd5b50565b600081359050612100816120da565b92915050565b60006020828403121561211c5761211b6120a4565b5b600061212a848285016120f1565b91505092915050565b60008115159050919050565b61214881612133565b82525050565b6000602082019050612163600083018461213f565b92915050565b600081519050919050565b600082825260208201905092915050565b60005b838110156121a3578082015181840152602081019050612188565b60008484015250505050565b6000601f19601f8301169050919050565b60006121cb82612169565b6121d58185612174565b93506121e5818560208601612185565b6121ee816121af565b840191505092915050565b6000602082019050818103600083015261221381846121c0565b905092915050565b6000819050919050565b61222e8161221b565b811461223957600080fd5b50565b60008135905061224b81612225565b92915050565b600060208284031215612267576122666120a4565b5b60006122758482850161223c565b91505092915050565b600073ffffffffffffffffffffffffffffffffffffffff82169050919050565b60006122a98261227e565b9050919050565b6122b98161229e565b82525050565b60006020820190506122d460008301846122b0565b92915050565b6122e38161229e565b81146122ee57600080fd5b50565b600081359050612300816122da565b92915050565b6000806040838503121561231d5761231c6120a4565b5b600061232b858286016122f1565b925050602061233c8582860161223c565b9150509250929050565b600080fd5b600080fd5b7f4e487b7100000000000000000000000000000000000000000000000000000000600052604160045260246000fd5b612388826121af565b810181811067ffffffffffffffff821117156123a7576123a6612350565b5b80604052505050565b60006123ba61209a565b90506123c6828261237f565b919050565b600067ffffffffffffffff8211156123e6576123e5612350565b5b6123ef826121af565b9050602081019050919050565b82818337600083830152505050565b600061241e612419846123cb565b6123b0565b90508281526020810184848401111561243a5761243961234b565b5b6124458482856123fc565b509392505050565b600082601f83011261246257612461612346565b5b813561247284826020860161240b565b91505092915050565b60008060008060008060c08789031215612498576124976120a4565b5b600087013567ffffffffffffffff8111156124b6576124b56120a9565b5b6124c289828a0161244d565b965050602087013567ffffffffffffffff8111156124e3576124e26120a9565b5b6124ef89828a0161244d565b955050604087013567ffffffffffffffff8111156125105761250f6120a9565b5b61251c89828a0161244d565b945050606087013567ffffffffffffffff81111561253d5761253c6120a9565b5b61254989828a0161244d565b935050608087013567ffffffffffffffff81111561256a576125696120a9565b5b61257689828a0161244d565b92505060a061258789828a016122f1565b9150509295509295509295565b6000806000606084860312156125ad576125ac6120a4565b5b60006125bb868287016122f1565b93505060206125cc868287016122f1565b92505060406125dd8682870161223c565b9150509250925092565b6000602082840312156125fd576125fc6120a4565b5b600061260b848285016122f1565b91505092915050565b61261d8161221b565b82525050565b60006020820190506126386000830184612614565b92915050565b61264781612133565b811461265257600080fd5b50565b6000813590506126648161263e565b92915050565b60008060408385031215612681576126806120a4565b5b600061268f858286016122f1565b92505060206126a085828601612655565b9150509250929050565b600067ffffffffffffffff8211156126c5576126c4612350565b5b6126ce826121af565b9050602081019050919050565b60006126ee6126e9846126aa565b6123b0565b90508281526020810184848401111561270a5761270961234b565b5b6127158482856123fc565b509392505050565b600082601f83011261273257612731612346565b5b81356127428482602086016126db565b91505092915050565b60008060008060808587031215612765576127646120a4565b5b6000612773878288016122f1565b9450506020612784878288016122f1565b93505060406127958782880161223c565b925050606085013567ffffffffffffffff8111156127b6576127b56120a9565b5b6127c28782880161271d565b91505092959194509250565b600081519050919050565b600082825260208201905092915050565b6000819050602082019050919050565b6128038161221b565b82525050565b600082825260208201905092915050565b600061282582612169565b61282f8185612809565b935061283f818560208601612185565b612848816121af565b840191505092915050565b61285c8161229e565b82525050565b60006101008301600083015161287b60008601826127fa565b5060208301518482036020860152612893828261281a565b915050604083015184820360408601526128ad828261281a565b91505060608301516128c26060860182612853565b5060808301516128d560808601826127fa565b5060a083015184820360a08601526128ed828261281a565b91505060c083015184820360c0860152612907828261281a565b91505060e083015184820360e0860152612921828261281a565b9150508091505092915050565b600061293a8383612862565b905092915050565b6000602082019050919050565b600061295a826127ce565b61296481856127d9565b935083602082028501612976856127ea565b8060005b858110156129b25784840389528151612993858261292e565b945061299e83612942565b925060208a0199505060018101905061297a565b50829750879550505050505092915050565b600060208201905081810360008301526129de818461294f565b905092915050565b600080604083850312156129fd576129fc6120a4565b5b6000612a0b858286016122f1565b9250506020612a1c858286016122f1565b9150509250929050565b7f4e487b7100000000000000000000000000000000000000000000000000000000600052602260045260246000fd5b60006002820490506001821680612a6d57607f821691505b602082108103612a8057612a7f612a26565b5b50919050565b7f4552433732313a20617070726f76616c20746f2063757272656e74206f776e6560008201527f7200000000000000000000000000000000000000000000000000000000000000602082015250565b6000612ae2602183612174565b9150612aed82612a86565b604082019050919050565b60006020820190508181036000830152612b1181612ad5565b9050919050565b7f4552433732313a20617070726f76652063616c6c6572206973206e6f7420746f60008201527f6b656e206f776e6572206f7220617070726f76656420666f7220616c6c000000602082015250565b6000612b74603d83612174565b9150612b7f82612b18565b604082019050919050565b60006020820190508181036000830152612ba381612b67565b9050919050565b60008190508160005260206000209050919050565b60006020601f8301049050919050565b600082821b905092915050565b600060088302612c0c7fffffffffffffffffffffffffffffffffffffffffffffffffffffffffffffffff82612bcf565b612c168683612bcf565b95508019841693508086168417925050509392505050565b6000819050919050565b6000612c53612c4e612c498461221b565b612c2e565b61221b565b9050919050565b6000819050919050565b612c6d83612c38565b612c81612c7982612c5a565b848454612bdc565b825550505050565b600090565b612c96612c89565b612ca1818484612c64565b505050565b5b81811015612cc557612cba600082612c8e565b600181019050612ca7565b5050565b601f821115612d0a57612cdb81612baa565b612ce484612bbf565b81016020851015612cf3578190505b612d07612cff85612bbf565b830182612ca6565b50505b505050565b600082821c905092915050565b6000612d2d60001984600802612d0f565b1980831691505092915050565b6000612d468383612d1c565b9150826002028217905092915050565b612d5f82612169565b67ffffffffffffffff811115612d7857612d77612350565b5b612d828254612a55565b612d8d828285612cc9565b600060209050601f831160018114612dc05760008415612dae578287015190505b612db88582612d3a565b865550612e20565b601f198416612dce86612baa565b60005b82811015612df657848901518255600182019150602085019450602081019050612dd1565b86831015612e135784890151612e0f601f891682612d1c565b8355505b6001600288020188555050505b505050505050565b7f4e487b7100000000000000000000000000000000000000000000000000000000600052601160045260246000fd5b6000612e628261221b565b91507fffffffffffffffffffffffffffffffffffffffffffffffffffffffffffffffff8203612e9457612e93612e28565b5b600182019050919050565b7f4552433732313a2063616c6c6572206973206e6f7420746f6b656e206f776e6560008201527f72206f7220617070726f76656400000000000000000000000000000000000000602082015250565b6000612efb602d83612174565b9150612f0682612e9f565b604082019050919050565b60006020820190508181036000830152612f2a81612eee565b9050919050565b7f4552433732313a20696e76616c696420746f6b656e2049440000000000000000600082015250565b6000612f67601883612174565b9150612f7282612f31565b602082019050919050565b60006020820190508181036000830152612f9681612f5a565b9050919050565b7f4552433732313a2061646472657373207a65726f206973206e6f74206120766160008201527f6c6964206f776e65720000000000000000000000000000000000000000000000602082015250565b6000612ff9602983612174565b915061300482612f9d565b604082019050919050565b6000602082019050818103600083015261302881612fec565b9050919050565b600081905092915050565b600061304582612169565b61304f818561302f565b935061305f818560208601612185565b80840191505092915050565b6000613077828561303a565b9150613083828461303a565b91508190509392505050565b7f4552433732313a206d696e7420746f20746865207a65726f2061646472657373600082015250565b60006130c5602083612174565b91506130d08261308f565b602082019050919050565b600060208201905081810360008301526130f4816130b8565b9050919050565b7f4552433732313a20746f6b656e20616c7265616479206d696e74656400000000600082015250565b6000613131601c83612174565b915061313c826130fb565b602082019050919050565b6000602082019050818103600083015261316081613124565b9050919050565b7f45524337323155524953746f726167653a2055524920736574206f66206e6f6e60008201527f6578697374656e7420746f6b656e000000000000000000000000000000000000602082015250565b60006131c3602e83612174565b91506131ce82613167565b604082019050919050565b600060208201905081810360008301526131f2816131b6565b9050919050565b7f4552433732313a207472616e736665722066726f6d20696e636f72726563742060008201527f6f776e6572000000000000000000000000000000000000000000000000000000602082015250565b6000613255602583612174565b9150613260826131f9565b604082019050919050565b6000602082019050818103600083015261328481613248565b9050919050565b7f4552433732313a207472616e7366657220746f20746865207a65726f2061646460008201527f7265737300000000000000000000000000000000000000000000000000000000602082015250565b60006132e7602483612174565b91506132f28261328b565b604082019050919050565b60006020820190508181036000830152613316816132da565b9050919050565b7f4552433732313a20617070726f766520746f2063616c6c657200000000000000600082015250565b6000613353601983612174565b915061335e8261331d565b602082019050919050565b6000602082019050818103600083015261338281613346565b9050919050565b7f4552433732313a207472616e7366657220746f206e6f6e20455243373231526560008201527f63656976657220696d706c656d656e7465720000000000000000000000000000602082015250565b60006133e5603283612174565b91506133f082613389565b604082019050919050565b60006020820190508181036000830152613414816133d8565b9050919050565b60006134268261221b565b91506134318361221b565b925082820390508181111561344957613448612e28565b5b92915050565b600061345a8261221b565b91506134658361221b565b925082820190508082111561347d5761347c612e28565b5b92915050565b600081519050919050565b600082825260208201905092915050565b60006134aa82613483565b6134b4818561348e565b93506134c4818560208601612185565b6134cd816121af565b840191505092915050565b60006080820190506134ed60008301876122b0565b6134fa60208301866122b0565b6135076040830185612614565b8181036060830152613519818461349f565b905095945050505050565b600081519050613533816120da565b92915050565b60006020828403121561354f5761354e6120a4565b5b600061355d84828501613524565b91505092915050565b7f4e487b7100000000000000000000000000000000000000000000000000000000600052601260045260246000fdfea26469706673582212203629218264db3695f10678789a208f65750d64990923d94c5d7516d85992f4e864736f6c63430008110033",
  "linkReferences": {},
  "deployedLinkReferences": {}
}