{
  "_format": "hh-sol-artifact-1",
  "contractName": "Datastore",
  "sourceName": "contracts/Datastore.sol",
  "abi": [
    {
      "inputs": [
        {
          "internalType": "string",
          "name": "date",
          "type": "string"
        },
        {
          "internalType": "string",
          "name": "matchesIpfsUrl",
          "type": "string"
        }
      ],
      "name": "CreateUpdateMatches",
      "outputs": [
        {
          "internalType": "string",
          "name": "",
          "type": "string"
        },
        {
          "internalType": "bool",
          "name": "",
          "type": "bool"
        }
      ],
      "stateMutability": "nonpayable",
      "type": "function"
    },
    {
      "inputs": [
        {
          "internalType": "string",
          "name": "team",
          "type": "string"
        },
        {
          "internalType": "string",
          "name": "playersIpfsUrl",
          "type": "string"
        }
      ],
      "name": "CreateUpdateTeam",
      "outputs": [
        {
          "internalType": "string",
          "name": "",
          "type": "string"
        },
        {
          "internalType": "bool",
          "name": "",
          "type": "bool"
        }
      ],
      "stateMutability": "nonpayable",
      "type": "function"
    },
    {
      "inputs": [
        {
          "internalType": "string",
          "name": "date",
          "type": "string"
        }
      ],
      "name": "GetMatches",
      "outputs": [
        {
          "internalType": "string",
          "name": "",
          "type": "string"
        },
        {
          "internalType": "bool",
          "name": "",
          "type": "bool"
        }
      ],
      "stateMutability": "view",
      "type": "function"
    },
    {
      "inputs": [
        {
          "internalType": "string",
          "name": "team",
          "type": "string"
        }
      ],
      "name": "GetTeamPlayers",
      "outputs": [
        {
          "internalType": "string",
          "name": "",
          "type": "string"
        },
        {
          "internalType": "bool",
          "name": "",
          "type": "bool"
        }
      ],
      "stateMutability": "view",
      "type": "function"
    }
  ],
  "bytecode": "0x608060405234801561001057600080fd5b50610c48806100206000396000f3fe608060405234801561001057600080fd5b506004361061004c5760003560e01c80634210f50614610051578063732ea70814610082578063866242e7146100b3578063e3048fca146100e4575b600080fd5b61006b60048036038101906100669190610628565b610115565b60405161007992919061073a565b60405180910390f35b61009c6004803603810190610097919061076a565b61019b565b6040516100aa92919061073a565b60405180910390f35b6100cd60048036038101906100c8919061076a565b6102f1565b6040516100db92919061073a565b60405180910390f35b6100fe60048036038101906100f99190610628565b610448565b60405161010c92919061073a565b60405180910390f35b606060008060405180604001604052808581526020016001151581525090508060008660405161014591906107ef565b908152602001604051809103902060008201518160000190816101689190610a1c565b5060208201518160010160006101000a81548160ff02191690831515021790555090505083600192509250509250929050565b6060600080836040516101ae91906107ef565b908152602001604051809103902060010160009054906101000a900460ff1661020c576040517f08c379a000000000000000000000000000000000000000000000000000000000815260040161020390610b60565b60405180910390fd5b60008360405161021c91906107ef565b908152602001604051809103902060000160008460405161023d91906107ef565b908152602001604051809103902060010160009054906101000a900460ff1681805461026890610835565b80601f016020809104026020016040519081016040528092919081815260200182805461029490610835565b80156102e15780601f106102b6576101008083540402835291602001916102e1565b820191906000526020600020905b8154815290600101906020018083116102c457829003601f168201915b5050505050915091509150915091565b6060600060018360405161030591906107ef565b908152602001604051809103902060010160009054906101000a900460ff16610363576040517f08c379a000000000000000000000000000000000000000000000000000000000815260040161035a90610bf2565b60405180910390fd5b60018360405161037391906107ef565b908152602001604051809103902060000160018460405161039491906107ef565b908152602001604051809103902060010160009054906101000a900460ff168180546103bf90610835565b80601f01602080910402602001604051908101604052809291908181526020018280546103eb90610835565b80156104385780601f1061040d57610100808354040283529160200191610438565b820191906000526020600020905b81548152906001019060200180831161041b57829003601f168201915b5050505050915091509150915091565b606060008060405180604001604052808581526020016001151581525090508060018660405161047891906107ef565b9081526020016040518091039020600082015181600001908161049b9190610a1c565b5060208201518160010160006101000a81548160ff02191690831515021790555090505083600192509250509250929050565b6000604051905090565b600080fd5b600080fd5b600080fd5b600080fd5b6000601f19601f8301169050919050565b7f4e487b7100000000000000000000000000000000000000000000000000000000600052604160045260246000fd5b610535826104ec565b810181811067ffffffffffffffff82111715610554576105536104fd565b5b80604052505050565b60006105676104ce565b9050610573828261052c565b919050565b600067ffffffffffffffff821115610593576105926104fd565b5b61059c826104ec565b9050602081019050919050565b82818337600083830152505050565b60006105cb6105c684610578565b61055d565b9050828152602081018484840111156105e7576105e66104e7565b5b6105f28482856105a9565b509392505050565b600082601f83011261060f5761060e6104e2565b5b813561061f8482602086016105b8565b91505092915050565b6000806040838503121561063f5761063e6104d8565b5b600083013567ffffffffffffffff81111561065d5761065c6104dd565b5b610669858286016105fa565b925050602083013567ffffffffffffffff81111561068a576106896104dd565b5b610696858286016105fa565b9150509250929050565b600081519050919050565b600082825260208201905092915050565b60005b838110156106da5780820151818401526020810190506106bf565b60008484015250505050565b60006106f1826106a0565b6106fb81856106ab565b935061070b8185602086016106bc565b610714816104ec565b840191505092915050565b60008115159050919050565b6107348161071f565b82525050565b6000604082019050818103600083015261075481856106e6565b9050610763602083018461072b565b9392505050565b6000602082840312156107805761077f6104d8565b5b600082013567ffffffffffffffff81111561079e5761079d6104dd565b5b6107aa848285016105fa565b91505092915050565b600081905092915050565b60006107c9826106a0565b6107d381856107b3565b93506107e38185602086016106bc565b80840191505092915050565b60006107fb82846107be565b915081905092915050565b7f4e487b7100000000000000000000000000000000000000000000000000000000600052602260045260246000fd5b6000600282049050600182168061084d57607f821691505b6020821081036108605761085f610806565b5b50919050565b60008190508160005260206000209050919050565b60006020601f8301049050919050565b600082821b905092915050565b6000600883026108c87fffffffffffffffffffffffffffffffffffffffffffffffffffffffffffffffff8261088b565b6108d2868361088b565b95508019841693508086168417925050509392505050565b6000819050919050565b6000819050919050565b600061091961091461090f846108ea565b6108f4565b6108ea565b9050919050565b6000819050919050565b610933836108fe565b61094761093f82610920565b848454610898565b825550505050565b600090565b61095c61094f565b61096781848461092a565b505050565b5b8181101561098b57610980600082610954565b60018101905061096d565b5050565b601f8211156109d0576109a181610866565b6109aa8461087b565b810160208510156109b9578190505b6109cd6109c58561087b565b83018261096c565b50505b505050565b600082821c905092915050565b60006109f3600019846008026109d5565b1980831691505092915050565b6000610a0c83836109e2565b9150826002028217905092915050565b610a25826106a0565b67ffffffffffffffff811115610a3e57610a3d6104fd565b5b610a488254610835565b610a5382828561098f565b600060209050601f831160018114610a865760008415610a74578287015190505b610a7e8582610a00565b865550610ae6565b601f198416610a9486610866565b60005b82811015610abc57848901518255600182019150602085019450602081019050610a97565b86831015610ad95784890151610ad5601f8916826109e2565b8355505b6001600288020188555050505b505050505050565b7f5465616d20646f6573206e6f742065786973742077697468696e20746865206360008201527f6f6e747261637420796574210000000000000000000000000000000000000000602082015250565b6000610b4a602c836106ab565b9150610b5582610aee565b604082019050919050565b60006020820190508181036000830152610b7981610b3d565b9050919050565b7f4e6f204d61746368657320657869737420666f7220746869732064617465207960008201527f6574210000000000000000000000000000000000000000000000000000000000602082015250565b6000610bdc6023836106ab565b9150610be782610b80565b604082019050919050565b60006020820190508181036000830152610c0b81610bcf565b905091905056fea2646970667358221220b0d09a714d5cfd0e1ef04624aaa4ec8e5e2ca4c2c256c379bbd491010ed7f7f664736f6c63430008110033",
  "linkReferences": {},
  "deployedLinkReferences": {}
}